:020000040800F2
:1000000008C501208D02000871470008773B0008F1
:100010006D47000859320008FB6A00080000000024
:10002000000000000000000000000000276400083D
:10003000DD37000800000000014800086566000880
:10004000A7020008A7020008A7020008A7020008EC
:10005000A7020008A7020008A7020008A7020008DC
:10006000A7020008A7020008A7020008A7020008CC
:10007000A7020008A70200085D34000889340008C0
:10008000A7020008A7020008A7020008A7020008AC
:10009000A7020008A7020008A7020008A70200089C
:1000A000A7020008A7020008A7020008A70200088C
:1000B000A7020008A7020008A7020008A70200087C
:1000C000A7020008A7020008A7020008A70200086C
:1000D000A7020008DD680008A7020008A7020008C0
:1000E000E1370008A7020008A7020008A7020008DD
:1000F000A7020008A7020008A7020008A70200083C
:10010000A7020008B54A0008D1660008A702000847
:1001100069680008A7020008A702000859670008DC
:10012000A7020008A7020008A7020008A70200080B
:10013000A7020008A7020008A7020008A7020008FB
:10014000A7020008A7020008A7020008A7020008EB
:10015000A7020008A7020008B5340008A70200089B
:10016000A7020008A7020008A7020008A7020008CB
:10017000A7020008A7020008A7020008A7020008BB
:10018000A7020008A702000800F002F800F067F8D4
:100190000AA090E8000C82448344AAF10107DA45E2
:1001A00001D100F05CF8AFF2090EBAE80F0013F0CD
:1001B000010F18BFFB1A43F001031847A47C00008D
:1001C000C47C00000A444FF0000C10F8013B13F00F
:1001D000070408BF10F8014B1D1108BF10F8015BA0
:1001E000641E05D010F8016B641E01F8016BF9D193
:1001F00013F0080F1EBF10F8014BAD1C0C1B09D1EA
:100200006D1E58BF01F801CBFAD505E014F8016B5B
:1002100001F8016B6D1EF9D59142D6D370470000ED
:100220000023002400250026103A28BF78C1FBD8FF
:10023000520728BF30C148BF0B607047642900F0E7
:100240009380782900F0F780732900F05C83002008
:1002500070471FB507F08EFD1FBD10B510BD00F033
:100260009FFB1146FFF7F5FF07F00EFA00F0BDFB0C
:1002700003B4FFF7F2FF03BC06F0C5FD30BF72B652
:10028000704762B6704780F3088870470948804716
:1002900009480047FEE7FEE7FEE7FEE7FEE7FEE768
:1002A000FEE7FEE7FEE7FEE704480549054A064B80
:1002B00070470000696600088901000808BF012036
:1002C00008C5012008C1012008C1012070470000B5
:1002D0000FB4044910B503AA029800F019FB10BC32
:1002E0005DF814FB180000200FB41CB5084B06AADB
:1002F0007B4469460090059800F0DBFA0446002034
:10030000694600F0E9FA20461CBC5DF814FB0000C9
:10031000E505000070B50C460546012A05D0287891
:10032000800600D5EA69002302E0012305E05B1C9A
:10033000934202D2E05C0028F9D1A869E618C01AFD
:10034000A861286A184428622846AFF3008004E0B8
:10035000D5E9012114F8010B9047B442F8D328469F
:10036000AFF3008070BD00002DE9F0410646002487
:1003700010687529314616A510D0AFF3008000280B
:1003800002DA404213A507E031688A0701D512A5B9
:1003900002E0490704D511A5012401E0AFF3008074
:1003A00000210A2206F1240709E0B0FBF2FCB0FBB1
:1003B000F2F302FB1C00303078541846491C002828
:1003C000F3D123462A463046BDE8F04100F012BA88
:1003D000000000002D0000002B00000020000000A5
:1003E000F0B40D460188090502D5214C7C4402E099
:1003F0001F4C7C440E34002100F1240608E002F07A
:100400000F071209E75D42EA03721B097754491C82
:1004100052EA0307F3D102780023120704D5702DA6
:1004200006D009B1022311342246F0BC00F0E2B933
:1004300001231034F8E770B504460D4621461068D4
:10044000AFF30080024629462046BDE870400023F5
:10045000C6E7D21D22F00703D3E90023C0E70368F3
:10046000126843F0200303600823C3610023B7E749
:10047000B87900002DE9F05F894604464FF0000A84
:10048000DFF874B1FB44C0F820A02046E16888473B
:10049000002874D0252806D0D4E901219047206A8D
:1004A000401C2062F1E700265F462046E16888474D
:1004B0002028054607DB312D05D2781910F8200CCD
:1004C00008B10643F1E7B00701D526F00406C4F8E9
:1004D0001CA00027C4F818A02A2D09D0284606F031
:1004E0008BFC38B304EB8708303DC8F8185019E08E
:1004F00059F8041B204604EB87029161E1688847A4
:10050000012F054618D1E069002820DA26F02006E0
:100510001DE0D8F8180000EB800005EB40003038F3
:10052000C8F818002046E1688847054606F064FCD4
:100530000028EED1012F0AD02E2D08D12046E168E7
:1005400088477F1C0546022F46F02006C4DBA069C1
:10055000002803DA404246F00106A061F00701D00E
:1005600026F010066C2D0BD0682D09D04C2D39D0FB
:100570006A2D35D0742D35D07A2D33D016E038E081
:10058000E1682F4620468847B842054609D16C2FBE
:1005900026D04FF48060E168064320468847054630
:1005A00004E06C2F1AD04FF4807006430DB3A5F110
:1005B0004100192802D8203546F400664A462946EB
:1005C000204626604E46FFF739FE80B101280BD049
:1005D000F61D26F0070000F1080956E74020E4E781
:1005E0008020D8E70020D6E706F104094DE7284629
:1005F00052E7206ABDE8F09F4879000010B5431C1F
:1006000002E010F8011B71B18107FAD14FF00132FD
:1006100002C88C1A8C4314EAC211F9D0C01A0A0617
:1006200003D0C01E10BDC01A10BD0A0401D0801E28
:1006300010BD0902FCD0401E10BD032A40F23080DC
:1006400010F0030C00F0158011F8013BBCF1020F13
:10065000624498BF11F801CB00F8013B38BF11F894
:10066000013BA2F1040298BF00F801CB38BF00F8AB
:10067000013B11F0030300F05D81083AC0F00880EF
:1006800051F8043B083A51F804CBA0E80810F5E70C
:10069000121D5CBF51F8043B40F8043BAFF30080EF
:1006A000D20724BF11F8013B11F801CB48BF11F864
:1006B000012B24BF00F8013B00F801CB48BF00F834
:1006C000012B704701F0FF03114601B543EA0322F5
:1006D00042EA024200F003F801BD4FF00002042993
:1006E000C0F0128010F0030C00F01B80CCF1040C61
:1006F000BCF1020F18BF00F8012BA8BF20F8022B95
:10070000A1EB0C0100F00DB85FEAC17C24BF00F83A
:10071000012B00F8012B48BF00F8012B70474FF068
:10072000000200B5134694469646203922BFA0E841
:100730000C50A0E80C50B1F12001BFF4F7AF09074D
:1007400028BFA0E80C5048BF0CC05DF804EB89003E
:1007500028BF40F8042B08BF704748BF20F8022B81
:1007600011F0804F18BF00F8012B70474FF0013C8B
:1007700050F8042B51F8043B9A4221D1A2EB0C0310
:10078000934313EACC1317D150F8042B51F8043BD0
:100790009A4215D1A2EB0C03934313EACC130BD16D
:1007A00050F8042B51F8043B9A4209D1A2EB0C03F8
:1007B000934313EACC13DBD04FF00000704700BF27
:1007C000D01A01BAB1FA81F101F0180122FA01F050
:1007D000CB40C1F12001DBB2C0B2C01A2CFA01F348
:1007E000D11A914311EAC311E6D17047704770479F
:1007F000704770472DE9F0470D46994692460446EA
:1008000000F124080168880604D5E06921F0100190
:10081000216000E00120A84201DD471B00E0002725
:10082000A1697A1902EB0900081AA0612078C006B4
:1008300002D42046AFF30080002608E0D4E901216D
:100840001AF806009047206A401C761C20624E452C
:10085000F4DB2078C0060AD52046AFF3008006E01E
:10086000D4E9012130209047206A401C2062381EC4
:10087000A7F10107F4DC07E0D4E9012118F805002D
:100880009047206A401C2062281EA5F10105F3DC78
:100890002046AFF300802078000602D50220BDE894
:1008A000F0870120FBE7000001694A1C026108781B
:1008B000704700B58FB0CDE90131002105910549A0
:1008C0007944CDE9031011466846FFF7D3FD0FB018
:1008D00000BD0000E5FFFFFF0A6802F8010B0A6097
:1008E000704710B5436913B1AFF3008001E0FFF723
:1008F00011FD012010BD127800F124010A700022C0
:100900004A700122EDE711684FF0FF32E9E700007D
:10091000074B70B50D467B44FFF7CBFF04462846D6
:1009200000F03AF810B14FF0FF3070BD204670BDB6
:100930007F6C000010B5203AC0F00B80B1E8185071
:10094000203AA0E81850B1E81850A0E81850BFF4B9
:10095000F5AF5FEA027C24BFB1E81850A0E8185058
:1009600044BF18C918C0BDE810405FEA827C24BFAC
:1009700051F8043B40F8043B08BF7047D20728BF3A
:1009800031F8023B48BF11F8012B28BF20F8023B89
:1009900048BF00F8012B7047007B00F080007047D3
:1009A000754600F02BF8AE4605006946534620F028
:1009B0000700854618B020B5FFF776FCBDE820405B
:1009C0004FF000064FF000074FF000084FF0000B0B
:1009D00021F00701AC46ACE8C009ACE8C009ACE8BE
:1009E000C009ACE8C0098D46704710B50446AFF3A6
:1009F00000802046BDE81040FFF73ABC0048704731
:100A000048BE012010B41A4B1C68236823F0010370
:100A10002360E0606260174B1868036823F00103ED
:100A20000360C1604260144B1B68144A9A60144B07
:100A30001A689389138913F0020FFBD0036843F0FF
:100A400001030360236843F0010323600D4B1B681F
:100A50001B6813F4001FF9D0236823F001032360FF
:100A6000036823F0010303605DF8044B704700BF87
:100A7000B8BE0120B0BE0120B4BE012000007D0F31
:100A8000A8BE0120ACBE012030B583B00D4614468F
:100A900000230193334A1060334A1370334B98425A
:100AA00003D003F58063984202D12F4B01221A70C4
:100AB0000CB100232380038803F0380301930388DB
:100AC0009BB223F038039BB20380038843F01003EA
:100AD000038003889BB223F001039BB20380244B65
:100AE0009D4230D92146012002F07CF8034638B3FC
:100AF0001C4B1A6813889BB223F038039BB21380F7
:100B0000019B11880B439BB21380194B9D4203D963
:100B1000138843F001031380FA2003F08FFCFA20BE
:100B200003F08CFCFA2003F089FCFA2003F086FC29
:100B30002346104A0021084600F0A0F8034650B9A9
:100B4000184603B030BD2146022002F04BF80346A0
:100B50000028CDD1F4E70849064802F036FB01230E
:100B6000EEE700BFA8BE012006BF0120003800400C
:100B7000FF2C310114010020F07D00080D4B0022F4
:100B80001A800D4B19680B8913F0020F08D1094A1E
:100B9000138801339BB213804EF660229342F0D942
:100BA000087300BF00BF054B1B780BB100BF00BF2F
:100BB000704700BF04BF0120A8BE012006BF01206E
:100BC000194B00221A8008E017490B8801339BB2A9
:100BD0000B804EF660218B420CD8144B1A68138997
:100BE00013F0800FF0D1138903F4C053002BEBD125
:100BF00000E09389138903F04103002BF9D11073AE
:100C0000094B00211980138913F0010F08D10649FF
:100C10000B8801339BB20B804EF660218B42F2D9D8
:100C20009089C0B2704700BF04BF0120A8BE012058
:100C300010B582B0049C0194009313460A46014605
:100C4000282001F063F902B010BD10B584B004ACE7
:100C500004F8011D009201232246032101F010FA3D
:100C600004B010BD00B583B0009100231A460146C0
:100C7000012001F075FA03B05DF804FBF0B58BB00C
:100C800007460E4615461C462022002102A8FFF703
:100C900019FD0CB100232380204602F0A2F903467F
:100CA00010B918460BB0F0BD072001F0BDF90120C6
:100CB00001F056FF1F238DF8083000228DF809201F
:100CC0008DF80A3000941346032102A801F076FE45
:100CD00048B377B19DF80A309DF80B2002EB032250
:100CE0009DF80C3003EB02229DF80D3003EB02233C
:100CF0003B6016B19DF80E3033700DB100230AE051
:100D00000123CEE703F108020AA90A4412F8202CB5
:100D1000EA5401339BB29DF80F209A42F2D8002288
:100D2000EA540123BDE70023BBE730B58BB005468D
:100D30000C4609B100230B80204602F052F903460D
:100D400010B918460BB030BD072001F06DF9012035
:100D500001F006FF10238DF8083000238DF80930CC
:100D60001A4607E00AA9194411F8201C0A44D2B215
:100D700001339BB2012BF5D98DF80A200094002392
:100D80001A46032102A801F019FE20B19DF80A308D
:100D90002B700123D5E70023D3E730B58BB0054690
:100DA0000C462022002102A8FFF78CFC0CB1002386
:100DB0002380204602F015F9034610B918460BB0FF
:100DC00030BD072001F030F9012001F0C9FE1223E7
:100DD0008DF8083000238DF809301A4607E00AA97B
:100DE000194411F8201C0A44D2B201339BB2012BE2
:100DF000F5D98DF80A20009400231A46032102A891
:100E000001F0DCFD20B19DF80A302B700123D5E7FD
:100E10000023D3E730B58BB004460D4620220021D5
:100E200002A8FFF74FFC0DB100232B80284602F0EB
:100E3000D8F8034610B918460BB030BD072001F0B2
:100E4000F3F8012001F08CFE11238DF80830002307
:100E50008DF809301A4607E00AA9194411F8201C38
:100E60000A44D2B201339BB2012BF5D98DF80A2086
:100E7000009500231A46032102A801F09FFD80B1CE
:100E800000230E2B09D89A1C0AA90A4412F8202C18
:100E9000E25412B101339BB2F3E70023E373012361
:100EA000C9E70023C7E708B501F04AFEFF2806D0CE
:100EB00010F0100F01D1002008BD0120FCE7002038
:100EC000FAE7000070B5064601F03AFEFF2804D1AB
:100ED0000346002006B1337070BD01F031FE0346B9
:100EE0000028F7D00024052C0FD80A4B1D5D28469A
:100EF00001F012FB0A2003F0A1FA01F021FE0346E3
:100F0000854204D10134A4B2EDE70120E2E70020DC
:100F1000E0E700BF587E000810B584B00446002307
:100F20000293019305E0019B01330193029B01337E
:100F30000293029BA3421FD2029B23F0250343F09E
:100F40000103DBB28DF803309DF8030001F0E4FAF1
:100F50000A2003F073FA01F0F3FD8DF80F009DF8FD
:100F60000F20D2B29DF80330DBB29A42DBD0019B56
:100F7000DBB28DF80230D9E7412001F0CDFA0A202A
:100F800003F05CFA019804B010BD2DE9F0438BB07A
:100F90000546884617469946129E149C2022002139
:100FA00002A8FFF78FFB0CB100232380204602F03C
:100FB00018F8034618B918460BB0BDE8F0830720AF
:100FC00001F032F8012001F0CBFD14238DF8083038
:100FD00001238DF809308DF80A5015358DF80B5026
:100FE000009400231A46042102A801F0E7FC00281F
:100FF0003FD09DF80B3053B1B8F1000F02D0002361
:1010000088F80030BFB300233B700123D3E7B8F169
:10101000000F03D09DF80C3088F8003017B19DF810
:101020000D303B70B9F1000F07D09DF80E209DF8F0
:101030000F3003EB0223A9F8003076B1002308E05B
:1010400003F108020AA90A4412F8202CF2540133D1
:101050009BB20F2BF4D90023F373139B6BB19DF854
:1010600021209DF8223003EB0223139A13800123E1
:10107000A1E700239FE701239DE701239BE7F0B54C
:1010800089B01F460E9E0023039304930593069395
:10109000ADF81C3041B30D46002305E008AC1C44FC
:1010A00004F8141C0133DBB20E2B02D8E95C0029D2
:1010B000F4D1130A8DF81C308DF81D2012238DF801
:1010C0000B3001960DF10B03009303AB01220221BB
:1010D00001F098F930B19DF80C209DF80D3003EB2C
:1010E00002233B8009B0F0BD01960DF10B03009384
:1010F00003AB0022022101F085F9EBE700B585B0D2
:1011000001920DF10F0300930B460022032101F021
:1011100079F905B05DF804FB2DE9F04F8BB08046FE
:101120000C46149E179F189D0EB196F800900DB1B5
:1011300000232B802946104602F004F860B94FF0D6
:10114000000A54460EB186F800900FB1A7F800A02F
:1011500020460BB0BDE8F08F01F08AFF01238DF827
:10116000083002238DF80930230A8DF80A308DF8F3
:101170000B400022134607E00AA9194411F8201C6D
:101180000A44D2B201339BB2032BF5D98DF80C205F
:10119000009500231A46052102A801F00FFC002843
:1011A00000F0D3809DF80A3043B325B101F0C8FCAC
:1011B00080B2000228809DF80A30FE2B19D00CD88E
:1011C000FD2B50D0002D00F0C4802B8843F02F035E
:1011D0002B804FF0000A5446B4E71DB12B8843F032
:1011E00022032B80C82003F029F94FF0000A54464F
:1011F000A8E71DB12B8843F023032B809DF80C300A
:101200009DF80DA00AEB032A1FFA8AFA54452AD347
:101210009DF80B905149524801F0D7FF00282BDD73
:10122000169B3BB19DF813209DF8123003EB02236F
:10123000169A1380159B63B19DF81630159A13709A
:101240009DF8173053709DF8183093709DF8193041
:10125000D370052000F0E8FE0A2003F0EFF84FF00D
:10126000000B5C462FE02DB12B8843F024032B802C
:10127000A246CDE7A246CBE7169B13B10023169AF0
:101280001380159B002BE4D00023159A1370537024
:101290009370D370DDE7334B1B7883B3AAEB040163
:1012A0002029A8BF2021C9B208EB040001F062F98F
:1012B00014FA80F4A4B2012003F0C0F8062001F073
:1012C00081F9834648BB5445BFF43CAF052001F08B
:1012D00047FC012003F0B2F8284601F015FF002872
:1012E000D9D10BF1010B5FFA8BFBBBF1010FD2D807
:1012F000052000F099FE052003F0A0F8E3E7AAEB33
:1013000004012029A8BF2021C9B208EB040001F084
:1013100012F914FA80F4A4B2CDE75445BFF412AF29
:10132000AAEB0403202B3FF70DAF00F0D3FD0028FC
:101330003FF408AFAAEB0401C9B208EB040001F0C6
:10134000FAF814FA80F4A4B2FCE64FF0000A54460E
:10135000F8E64FF0000A5446F4E600BFF87D0008B6
:1013600014010020BCBE012010B588B00A9C049472
:10137000002403940294019400930DF11F03FFF7DE
:10138000CBFE08B010BD00002DE9F04385B08046CB
:101390000C4617461E460C9D9149924801F015FFD8
:1013A000002811DD90498F4801F00FFF002817DD5C
:1013B000B8F1000F78D000221F2A1ED818F802308A
:1013C000DBB10132D2B2F7E7009533463A46214607
:1013D000404600F00DF90346184605B0BDE8F0831D
:1013E0008249804801F0F1FE0028E1DB284600F048
:1013F000F7F9FA2003F022F8DAE71A2A19D91B3A8A
:101400005FFA82F91B220095002341461846FFF738
:101410000FFC03460028DFD0B9F1000F0CD1002CDF
:1014200042D000223F2A16D8A35CA3B10132D2B227
:10143000F8E74FF00009E6E7009500234A46092A3D
:1014400028BF092208F11B011020FFF7F1FB03461A
:101450000028E4D1C0E71A2A32D91B3A5FFA82F891
:101460001B220095002321460120FFF7E1FB0346E4
:101470000028B1D0B8F1000F16D0B8F11A0F22D958
:10148000A8F11B025FFA82F94FF01B0800950023B8
:10149000424604F11B012020FFF7CAFB0346002847
:1014A0009AD0B9F1000F11D100953B4600221146A8
:1014B000FF20FFF7BDFB034600288DD000272EE05C
:1014C0004FF00008CDE74FF00009DFE7009500235B
:1014D0004A46092A28BF092204F136012120FFF7D4
:1014E000A7FB03460028DFD176E7FA2002F0A6FF2B
:1014F000FA2002F0A3FFFA2002F0A0FFFA2002F087
:101500009DFF0134A4B2C72CEFD929460DF10F007D
:10151000FFF743FC034601280CD00137BFB2B846A1
:1015200006EB86039F4246DA4FF6FF739F4242D096
:101530000024E8E79DF80F20042A31D015D8022AAC
:1015400023D0032AE9D1731E03EB8303023B4345F7
:10155000E3DC002D3CD001F0F3FA83B21B029BB216
:1015600043F04A032B80002336E7052A3FF434AFCB
:10157000FF2AD2D185B301F0E3FA83B21B029BB2FA
:1015800043F04C032B80002326E7FDB101F0D8FA8D
:1015900083B21B029BB243F04B032B8000231BE75B
:1015A000C5B101F0CDFA83B21B029BB243F04D03EB
:1015B0002B80002310E78DB101F0C2FA83B21B0229
:1015C0009BB243F032032B80002305E7002303E79F
:1015D000002301E70023FFE60023FDE60023FBE6EE
:1015E000007E000814010020087E0008307E0008FC
:1015F0002DE9F0438DB080460F4614461E46149DDB
:101600002022002104A8FFF75DF80DB100232B80F4
:10161000284601F0E6FC814618B948460DB0BDE801
:10162000F083072000F000FD012001F099FA222349
:101630008DF810301D238DF81130002306E09A1C20
:101640000CA8024402F8201C01339BB20C2B03D8D7
:1016500018F803100029F2D100238DF81F3007E09D
:1016600003F110020CA8024402F8201C01339BB2C3
:101670000C2B02D8F95C0029F2D100238DF82D3013
:101680008DF82E401A4607E00CA9194411F8201CC9
:101690000A44D2B201339BB21E2BF5D98DF82F200C
:1016A000009500231A46202104A801F087F900289C
:1016B00000F084809DF81290B9F1000F70D1002DD8
:1016C000ABD001F03DFA83B21B029AB29DF8123002
:1016D000803313432B80A0E7FA2002F0AFFEFA20FC
:1016E00002F0ACFEFA2002F0A9FEFA2002F0A6FEFB
:1016F0000134A4B2C72CEFD929460DF10F00FFF732
:101700004CFB814601280BD00137BFB206EB8603A4
:101710009F4247DA4FF6FF739F4243D00024E9E728
:101720009DF80F30042B2FD010D8022B20D0032B84
:10173000EAD1002D48D001F003FA83B21B029BB21C
:1017400043F04A032B804FF0000966E7052B3FF476
:1017500064AFFF2BD8D1002D3CD001F0F1F983B25A
:101760001B029BB243F04C032B804FF0000954E75F
:101770003DB301F0E5F983B21B029BB243F04B038A
:101780002B804FF0000948E70DB301F0D9F983B27F
:101790001B029BB243F04D032B804FF000093CE746
:1017A0000027B3E7CDB101F0CBF983B21B029BB2A6
:1017B00043F032032B804FF000092EE74FF0000971
:1017C0002BE74FF0000928E74FF0000925E74FF01D
:1017D000000922E74FF000091FE74FF000091CE75E
:1017E00070B58AB004462022002102A8FEF76AFFE5
:1017F00021461B4801F016FD50BB06460CB10023E4
:101800002380204601F0EDFB054610B3072000F0D1
:101810000BFC012001F0A4F920238DF808300022F0
:101820008DF809208DF80A3000941346032102A890
:1018300001F0C4F880B19DF80A507DB94CB101F0B7
:101840007FF983B21B029BB243F04E03238000E07A
:10185000002528460AB070BD3546FAE70125F8E7AD
:10186000307E00082DE9F04F8DB0002407940894D5
:1018700009940A940B948DF81B4041B10E46002444
:10188000FF2C08D8355D35B10134A4B2F8E74F22FA
:101890001A80A34617E0611E89B2FE290FD81F46A1
:1018A000904681461B2C12D91946444801F0BAFCD7
:1018B00068B90FB100233B804FF0000A24E04F22AB
:1018C0001A804FF0000B58460DB0BDE8F08F3B4634
:1018D00042463146484601F0EBF98346F3E71825C6
:1018E0000497CDF80C800294CDF804A0009506EB87
:1018F0000A0336220DF11B0107A800F0D5FF83462D
:1019000070B155441FFA85FAA2453ED2A4EB0A03F2
:10191000172BE4DCE5B25FFA8AF1691ACDB2DFE792
:10192000002FD0D001F00CF983B21B029BB23B8098
:101930009DF81C20FC2A18D008D8FA2A1DD018D8E7
:101940009C2A1ED143F04F033B80BCE7FE2A08D0FF
:1019500003D843F03C033B80B5E743F03A033B80B8
:10196000B1E743F03B033B80ADE743F05E033B80D0
:10197000A9E743F05F033B80A5E743F05F033B80AB
:10198000A1E743F03D033B809DE700230F2B0ED8DA
:101990009DF81B209A420AD95A1C0CA90A4412F835
:1019A000142C09F8032012B101339BB2EEE7002298
:1019B00009F803204FF0010B85E700BF187E0008EF
:1019C00070B58AB005460E4614462022002102A8B2
:1019D000FEF778FE0CB100232380204601F001FBC6
:1019E000034610B918460AB070BD072000F01CFB72
:1019F000012001F0B5F813238DF8083000238DF88D
:101A000009301A4607E00AA9194411F8201C0A44B3
:101A1000D2B201339BB2012BF5D98DF80A20009484
:101A200000231A46032102A800F0C8FFE0B19DF888
:101A30000930002BD6D09DF90A30337000231A2BC1
:101A40000ED89DF80920023A934209DADA1C0AA955
:101A50000A4412F8202CEA5412B101339BB2EEE78B
:101A60000022EA540123BDE70023BBE72DE9F04F34
:101A700089B08346884692460493129FBDF84C3045
:101A80000593DDF850900021ADF81E10454801F097
:101A9000C9FB28BB444B1B78012B24D0434B1B783C
:101AA000012B00D0E7B108AB4FF4806223F8042D7E
:101AB000CDF80090059A39460498FFF7E0FA18B976
:101AC0004FF48063ADF81C30384B00221A70BDF81B
:101AD0001C20374B1B7803FB02F35B10354A138045
:101AE000002634461BE04A4631490498FFF706FBBE
:101AF00010B92F4B02221A702B4B00221A70CDE71F
:101B0000FA2002F09BFC09E0284B01221A702046C3
:101B100009B0BDE8F08F002600E0002601364445FC
:101B200031D2B2452FD3A8EB0403224A15889D4237
:101B300000D39DB20DF11E030293059B0193009704
:101B40003B1C18BF0123049A29460BEB040000F04C
:101B500049FD0444BDF81E20D3B2B9F1000F01D0F5
:101B6000A9F800208542D6D0002BD6D0122BC7D0A2
:101B7000A3F11302D2B2022AC6D9182BC4D0632013
:101B800002F05CFCCAE7B9F1000FC0D0B245BED28A
:101B9000B9F9003023F0FF0343F01E03A9F8003029
:101BA000B5E700BF087E00082601002025010020BF
:101BB0002A0100202801002070B58AB006460D4693
:101BC00014460AB100231380204601F00AFA0346A6
:101BD00010B918460AB070BD072000F025FA0120A0
:101BE00000F0BEFF15238DF8083002238DF8093070
:101BF0008DF80A608DF80B500022134607E00AA901
:101C0000194411F8201C0A44D2B201339BB2032BB1
:101C1000F5D98DF80C20009400231A46052102A85E
:101C200000F0CCFEA0B100240DE0FA2002F006FC8A
:101C3000FA2002F003FCFA2002F000FCFA2002F085
:101C4000FDFB0134A4B2132CEFD99DF80A30C0E794
:101C50000023BEE72DE9F04F93B007468A46904631
:101C600099469DF870509DF874601E9C0023069361
:101C7000079308930993ADF8163004B123802146E9
:101C80008A4801F0CFFA60B90DF116012846FEF737
:101C9000E9FF834628B9BDF81620D3B2553B012B86
:101CA00012D98349834801F090FA00281DDA0023F5
:101CB0000F2B0CD818F8032012A9194401F8302C66
:101CC0002AB101339BB2F3E75CB1228009E012AA8A
:101CD0001344002203F8302C204601F082F9834699
:101CE00068B9584613B0BDE8F08F234632464146E6
:101CF00006A8FFF7B7FD83460028EDD1F1E70720DE
:101D000000F092F9012000F02BFF18238DF8283005
:101D100016238DF829308DF82A704FEA1A238DF892
:101D20002B308DF82CA000230F2B0CD812AA1A44AC
:101D300012F8301C39B15A1D12A8024402F8201CB6
:101D400001339BB2F0E705339BB206E012AA1A44B6
:101D5000002102F8201C01339BB2142BF6D94FEA64
:101D600019238DF83D308DF83E908DF83F500022BC
:101D7000134607E012A9194411F8201C0A44D2B2F4
:101D800001339BB2172BF5D98DF840200094002326
:101D9000052219210AA800F011FE00287AD09DF82A
:101DA0002AB0BBF1000F0FD0002C76D000F0C8FE97
:101DB00083B21B029AB29DF82A30C3F18003134309
:101DC00023804FF0000B8CE7002F69D0022F6AD0E0
:101DD000012F86D14FF0000941E0FA2002F02EFBDE
:101DE000FA2002F02BFBFA2002F028FBFA2002F086
:101DF00025FB08F10108B8F1C70FEEDD02940021C0
:101E0000019100910B460DF115022846FFF7BDF830
:101E100008B39DF81530062B1DD8DFE803F0041C2D
:101E20002D2D2D2D1000002C3FF45BAF00F088FE0F
:101E300083B21B029BB243F03303238051E7002C93
:101E40003FF44FAF00F07CFE83B21B029BB243F025
:101E50003903238045E709F101091FFA89F906EBE7
:101E6000860399450ADA4FF6FF73994506D04FF07D
:101E700000088DF81580BEE7BB4632E7002C3FF422
:101E800030AF00F05DFE83B21B029BB243F034031F
:101E9000238026E74FF0000B23E74FF0000B20E7ED
:101EA0004FF0010B1DE74FF0010B1AE7307E0008E1
:101EB000107E00081401002008B500F041FEFF2844
:101EC00006D010F0800F01D1002008BD0120FCE7F2
:101ED0000020FAE708B500F033FE034618B110F011
:101EE000200F02D00023184608BD0123FBE708B5E8
:101EF00000F026FEFF2806D010F0010F01D10020CF
:101F000008BD0120FCE70020FAE700002DE9F047BA
:101F10008AB005460F4691469846139C2022002120
:101F200002A8FEF7CFFB0CB10023238021463D48D9
:101F300001F078F9064628B14FF0000A50460AB081
:101F4000BDE8F087204601F04CF882460028F5D025
:101F5000072000F069F8012000F002FEB8F11B0F25
:101F600001D94FF01B088DF8085008F102038DF8D5
:101F700009309DF848308DF80A308DF80B70002339
:101F800008E01A1D19F803100AA8024402F8201CE0
:101F900001339BB21A2B36D81FFA88F29A42F0D836
:101FA0003246002107E00AAB0B4413F8203C1A44E8
:101FB000D2B2013189B208469DF809300233994204
:101FC000F1DB0AAB184400F8202C282D1ED04FF46A
:101FD0007A72013100940023C9B202A800F0EEFC2D
:101FE000D8B19DF80AA0BAF1000F18D1002CA5D0E5
:101FF00000F0A6FD83B21B029AB29DF80A3080332E
:10200000134323809AE732460021D4E7FF2F01D003
:102010000A22DEE74FF47A72DBE7B2468EE74FF032
:10202000010A8BE7287E0008F8B5044600F088FD19
:102030000127A740FF437FB207EA0003DBB29842C3
:102040001CD006460024B4F57A7F0BD200F078FD50
:102050000546864206D0022002F0F0F90134A4B20F
:102060002E46F0E707EA0500C0B2854206D000F030
:10207000FB0000F051FA0A2002F0E0F9F8BD000080
:102080002DE9F0438BB08146884617461E46129CC8
:102090000CB1002323802146304801F0C3F80546E7
:1020A00020B1002318460BB0BDE8F083204600F0B5
:1020B00098FF03460028F5D00720FFF7B5FF012061
:1020C00000F04EFD2D238DF80830F31C8DF80930FB
:1020D0008DF80A908DF80B808DF80C600023B2B259
:1020E0009A4208D95A1DF95C0AA8024402F8201C39
:1020F00001339BB2F3E72A46002108469DF80930D8
:102100000233994208DA0AAB0B4413F8203C1A4414
:10211000D2B2013189B2F0E70AAB184400F8202CA2
:102120000131009400231A46C9B202A800F046FC0F
:1021300068B19DF80A3063B16CB100F001FD83B263
:102140001B029BB243F0410323802B46AAE72B4698
:10215000A8E70123A6E72B46A4E700BF207E0008DE
:102160002DE9F0418EB006460D4617469846149C60
:102170000CB10023238002940023019300930DF1FE
:1021800016020DF117012846FEF7FFFE0346002850
:1021900063D09DF81730022B54D81BB19DF8162040
:1021A000002A5ED01EB9002B5DD0012B31D00EB9B4
:1021B000022B34D0204600F014FF034600284CD0F8
:1021C0000720FFF731FF012000F0CAFC002E4CD0A1
:1021D00019238DF8183001238DF819308DF81A5015
:1021E000A7B13B788DF81B307B788DF81C30BB781D
:1021F0008DF81D30FB788DF81E304FEA18238DF8CE
:102200001F308DF8208007238DF8193000221146E9
:1022100035E09DF81620062AC9D1572513E0002184
:102220000EAA02F8231D0294019100910B46284644
:1022300000F061F8034680B19DF81530002BB9D14C
:10224000572500E05425002C4FD000F079FC83B2D4
:102250001B029BB22B432380002318460EB0BDE81F
:10226000F0815425EFE75725EDE71A23B1E70EABD0
:102270000B4413F8203C1A44D2B20131C9B20846CB
:102280009DF8193002339942F1DB0EAB184400F887
:10229000202C0131009400231A46C9B206A800F090
:1022A0008DFB20B39DF81A307BB1F42B0DD004B315
:1022B00000F046FC83B21B029AB29DF81A30C3F1BB
:1022C0008003134323800023C7E79DF817300BB129
:1022D000002406E00123C0E7FA2002F0AFF8013441
:1022E000E4B2072CF8D90123B7E70023B5E70023B0
:1022F000B3E70023B1E72DE9F0418AB005460F4668
:1023000016469846129C2022002102A8FEF7DAF910
:102310000EB1002333700CB100232380204600F05F
:1023200060FE034618B918460AB0BDE8F0810720E0
:10233000FFF77AFE012000F013FC2F238DF8083000
:1023400002238DF809308DF80A508DF80B70313565
:1023500057FA85F18DF80C10009400231A460521D8
:1023600002A800F02BFB002845D09DF80C30E3B10B
:10237000002C42D000F0E4FB83B21B029BB223800E
:102380009DF80C20FF2A06D0FE2A09D043F0350321
:1023900023800023C7E743F05A0323800023C2E7CA
:1023A00043F05B0323800023BDE716B19DF80D3099
:1023B0003370109B63B19DF80E30109A13709DF826
:1023C0000F3053709DF8103093709DF81130D3701A
:1023D000119B3BB19DF812209DF8133003EB0223B3
:1023E000119A1380B8F1000F09D09DF8143088F8C5
:1023F0000030012397E7002395E7002393E70123AB
:1024000091E700002DE9F0438BB0814688461446E1
:102410001E46139D0DB100232B8029463D4800F038
:1024200001FF074620B1002318460BB0BDE8F0833A
:10243000284600F0D6FD03460028F5D00720FFF718
:10244000F3FD012000F08CFB2C238DF808300223D3
:102450008DF809308DF80A908DF80B800CBB3A4648
:102460000023211D8B421EDA0AA9194411F8201CF1
:102470000A44D2B201339BB2F3E7E31C32780AA9D3
:102480000B4403F8202C0134E4B21A2C03D8129B1D
:102490001B78A342F1D89DF8093023448DF8093008
:1024A000DDE73C46F1E70AAB194401F8202C611D39
:1024B000009500231A46C9B202A800F07FFA18B3AB
:1024C0009DF80A3053B10DB300F03AFB83B21B0202
:1024D0009BB243F040032B803B46A5E79DF80B30B1
:1024E000129A1370002307E01A1D0AA90A4412F871
:1024F000202CF25401339BB2129A12789A4207D9D7
:10250000022BF1D901238FE73B468DE73B468BE752
:10251000012389E7207E000810B50446002001F061
:1025200075FF0120FEF72AFB2046FEF749FB01203C
:1025300001F06CFF10BD70B50D46C9B1202900D95E
:1025400020250646002001F061FF0320FEF716FB60
:102550000020FEF735FB002405E00020FEF730FBED
:1025600030550134E4B2A542F7D8012001F04EFF06
:10257000284670BDF8B50646202913D80D46104FE1
:1025800003233B7000247C70204601F03FFFAA1C0F
:1025900007F122013846FEF735FA012001F036FF37
:1025A000204609E02025EAE7821C054B134493F8F6
:1025B000223033540130C0B28542F5D82846F8BDE8
:1025C000C0BE012010B5044600F0BAFAFF2807D0BB
:1025D000204110F0010F01D1002010BD0120FCE7C7
:1025E0000020FAE72DE9F0478EB080460C46914670
:1025F0001F46169EBDF85CA0189D0023029303930E
:102600000493059305B12B80012F21D0284600F0BB
:10261000E8FC00283ED10026022000F0A1FA0220AA
:1026200001F00CFF0F21042000F0BEFC002800F098
:102630002981A64208D3B4F5807F05D8F92C40F251
:1026400025810A2001F0FAFE30460EB0BDE8F08781
:102650009249934800F0B9FD002811DA00230F2BAE
:1026600008D8F25C0EA9194401F8302C12B10133DC
:102670009BB2F4E70EAA1344002203F8302CC5E7FE
:102680002B461422314602A8FFF7ECF80028BDD1F2
:102690000026D9E700F012FD00238DF8183004223F
:1026A0008DF819208DF81A90220A8DF81B208DF8CC
:1026B0001C408DF81D30012F02D000210B4631E067
:1026C00001238DF81D30002306E09A1D0EA8024458
:1026D00002F8201C01339BB20F2B05D80EAA1A4416
:1026E00012F8301C0029F0D106339BB206E00EAA86
:1026F0001A44002102F8201C01339BB2152BF6D995
:102700004FEA1A238DF82E308DF82FA016238DF85E
:102710001930D2E70EAA1A4412F8202C1144C9B27B
:1027200001339BB218469DF8192002329342F1DB27
:102730000EAB184400F8201C9DF8191003310095C9
:1027400000231A46C9B206A800F038F9002800F0A4
:1027500087809DF81A30002B5AD025B100F0F0F98F
:1027600080B2000228809DF81A30F83B072B47D82A
:10277000DFE803F03E362E261E160E041DB12B8810
:1027800043F012032B80C82001F058FE002643E7D7
:10279000002D67D02B8843F013032B8000263BE7E6
:1027A000002D61D02B8843F014032B80002633E7E3
:1027B000002D5BD02B8843F015032B8000262BE7E0
:1027C000002D55D02B8843F018032B80002623E7DB
:1027D000002D4FD02B8843F019032B8000261BE7D8
:1027E000002D49D02B8843F01A032B80002613E7D5
:1027F000002D43D02B8843F01B032B8000260BE7D2
:10280000002D3DD02B8843F01F032B80002603E7CB
:102810000B2001F013FE002611E0202716E0F9B28C
:1028200008EB060000F07EFB0B2001F007FE2846B7
:1028300000F0ADFC00283FF4EFAE3E44B6B2A64235
:10284000BFF4EAAEA31B202BE7DC9FB2154B1B782D
:10285000002BE4D0F9B208EB060000F041FBE3E7FF
:102860000026D9E60026D7E60026D5E60026D3E6E0
:102870000026D1E60026CFE60026CDE60026CBE6F0
:102880000026C9E6022000F06BF9D2E6142001F020
:10289000D5FDE0B2C043C0B2D4E600BF107E000850
:1028A00014010020BCBE01202DE9F04F8BB007467B
:1028B0000E46934698469DF85040BDF85490BDF89A
:1028C00058A0189D2022002102A8FDF7FBFE0DB1A3
:1028D00000232B80284600F084FB034618B91846D5
:1028E0000BB0BDE8F08F0720FFF79EFB012000F042
:1028F00037F98DF808B04FEA1A238DF80A308DF8B1
:102900000BA04FEA19238DF80C308DF80D908DF83F
:102910000E40002308E0DA1D18F803100AA802444C
:1029200002F8201C01339BB2A2B29A42F3D8631D75
:102930008DF809300022134607E00AA9194411F85E
:10294000201C0A44D2B201339BB21846E11D8B42CF
:10295000F3DB0AAB184400F8202C9DF809109DF811
:102960005C301E2B28BF1E23C3EB431203EB8203F4
:10297000DA0093B2033100950022C9B202A800F038
:102980001DF8A8B19DF80A30A3B9AFB19DF8093080
:102990003370002307E09A1C0AA90A4412F8202C7D
:1029A000FA5401339BB232789A42F4D8012396E765
:1029B000002394E7002392E7012390E72DE9F843F1
:1029C00007461446994690F8008000F055FA0A2010
:1029D00001F034FD0CE0FA2001F030FDFA2001F0A6
:1029E0002DFDFA2001F02AFDFA2001F027FD2C46EA
:1029F000631E9DB2002CEED1089800F0C8FB0028A1
:102A000000F08C804FF47A7606FB09F636094A4BC3
:102A1000A3FB0636F60901362546A946B54206D27D
:102A2000089800F0FDFA10B90135ADB2F5E7B145EF
:102A300001D3002073E020213846FFF77CFD0A20F7
:102A400001F0FCFC0720FFF7EFFA7978002304E09F
:102A50003A5D1344DBB20134A4B28A1C9442F7DB22
:102A600039448A789A420DD0089B002B59D000F047
:102A700067F883B21B029BB243F03003089A1380BD
:102A800000204CE03B7823F08003434512D0B8F19E
:102A9000360F0DD0089B002B45D000F051F883B2C3
:102AA0001B029BB243F03103089A1380002036E0EA
:102AB000252BEFD10021214800F0B4FB002834D1B0
:102AC000BB78782B01D0012029E0089B002B2ED069
:102AD00000F036F883B21B029BB2089A1380BA78D2
:102AE000032A15D8DFE802F02502080E43F045035B
:102AF000089A1380002012E043F04603089A1380DE
:102B000000200CE043F04703089A1380002006E001
:102B100043F04803089A1380002000E00020BDE83D
:102B2000F8830020FBE70020F9E70120F7E7002009
:102B3000F5E70120F3E700BFC55A7C0A307E0008A4
:102B400010B5002001F062FC0420FEF717F8002009
:102B5000FEF736F80446012001F058FC204610BD6F
:102B60002DE9F0418046FFF7EBFF0646012707FA03
:102B700008F77FB247EA0003DBB298420FD0002487
:102B8000B4F57A7F15D2FFF7DBFF0546864210D0F9
:102B9000022001F053FC0134A4B22E46F0E7B8F154
:102BA000020F04D0B8F1050F12D10024E8E7002489
:102BB000E6E747EA0500C0B285420BD0B8F1020F44
:102BC00001D000F0FB00FFF7A7FC0A2001F036FC63
:102BD000BDE8F081B8F1020FF0D0B8F1050FF7D1E0
:102BE000ECE7000030B58FB005460C4609B1002374
:102BF0000B80204600F0F5F9034610B918460FB0D7
:102C000030BD0720FFF710FA0120FFF7A9FF42238C
:102C10008DF8183001238DF819308DF81A500023E3
:102C200008E0DA1C2049C95C0EA8024402F8201C06
:102C300001339BB20F2BF4D91C4A03AB07CA03C361
:102C40001A7000238DF815300BE003F113020EA962
:102C5000194411F82C1C0EA8024402F8201C013360
:102C60009BB2092BF1D91B238DF81930002319468B
:102C700007E00EAA0A4412F8202C1344DBB20131FB
:102C800089B21C29F5D90EAA0A4402F8203C013168
:102C9000009400231A46C9B206A8FFF78FFE08B1B8
:102CA0000123ABE70023A9E7487E0008E47D000884
:102CB0002DE9F0418EB004460D4617461E462022EF
:102CC000002106A8FDF7FEFC0EB10023338031463B
:102CD000674800F0A7FA8046002840F0C080654BA6
:102CE0000DF1080C0FCB8CE80F0000230F2B09D837
:102CF000E95C0EAA1A4412F8302C914202D1013339
:102D00009BB2F3E70F2B0CD9002306E00EAA1A445E
:102D100012F8302CE25401339BB20F2BF6D9012369
:102D20009EE0304600F05DF90346002800F09880F0
:102D30000720FFF779F90120FFF712FF25238DF80F
:102D400018308DF81A7000231A2B09D8DA1CE95CA8
:102D50000EA8024402F8201C11B101339BB2F3E724
:102D60001846D91C0EAA1144002201F8202C023367
:102D70008DF819304146134607E00EAA1A4412F89E
:102D8000202C1144C9B201339BB21D46021D93424F
:102D9000F3DB0EAB1D4405F8201C9DF819101E2F07
:102DA00028BF1E27C7EB471307EB8307FB009BB227
:102DB000033100960022C9B206A8FFF7FFFD0028E4
:102DC00052D09DF81A308BB1002E4FD0FFF7B8FECD
:102DD00083B21B029BB233809DF81A20FA3A052A6F
:102DE00038D8DFE802F0322D28231E1900230F2BDC
:102DF0000ED89DF81920023A934209DADA1C0EA97E
:102E00000A4412F8202CE25412B101339BB2EEE7CF
:102E10000022E254012323E043F03A033380434687
:102E20001EE043F03B033380434619E043F03C038C
:102E30003380434614E043F05E03338043460FE0A3
:102E400043F05F03338043460AE043F05F0333807F
:102E5000434605E043F03D033380434600E0002352
:102E600018460EB0BDE8F0814346F9E74346F7E760
:102E7000107E0008387E000869B370B506460D461E
:102E80001F2900D92025002001F0C0FA0220FDF7FB
:102E900075FE0020FDF772FE002404E0305DFDF7B2
:102EA0006DFE0134E4B2A542F8D80B4B00221A8023
:102EB0000A4B1B681B8913F0800F08D0064A138841
:102EC00001339BB213804EF660229342F0D9012069
:102ED00001F09CFA70BD704704BF0120A8BE01201C
:102EE00038B50D461F2900D920250D4A022313703D
:102EF0000023537005E09A1CC45C09498C540133CB
:102F0000DBB29D42F7D8002001F080FA0448AA1CE9
:102F100000F12201FDF776FD012001F077FA38BDBE
:102F2000C0BE012069B370B506460D461F2900D901
:102F30002025002001F06AFA0220FDF71FFE002084
:102F4000FDF71CFE002404E0305DFDF717FE0134A0
:102F5000E4B2A542F8D80B4B00221A800A4B1B683A
:102F60001B8913F0800F08D0064A138801339BB2E7
:102F700013804EF660229342F0D9012001F046FA08
:102F800070BD704704BF0120A8BE012008B5FFF73F
:102F9000D7FDFF2806D010F0020F01D1012008BD97
:102FA0000020FCE70020FAE770B506460D46002435
:102FB00004E0022001F042FA0134A4B2B4EB550F50
:102FC0000DD24FF6FF739C4207D0FFF7B9FDFF28E3
:102FD000EFD03042EDD0012002E0002000E00020E0
:102FE00070BD38B50546002446F2A7139C4208D8A8
:102FF000FEF77DFF80B9022001F020FA0134A4B26F
:10300000F2E75DB1FFF79CFD83B21B029BB243F078
:1030100010032B80002000E0012038BD0020FCE7D9
:1030200038B50546002446F2A7139C420DD8FEF79A
:1030300043FF28B9022001F001FA0134A4B2F2E7FB
:1030400095B100232B80012038BD7DB1FFF778FDBD
:1030500083B21B022B80022001F0F0F92B8843F091
:1030600016032B800020EFE70120EDE70020EBE7BF
:1030700070B5FFF765FD00F05F0343F0020398426F
:103080001BD006460024B4F57A7F0BD2FFF758FD1B
:103090000546864206D0022001F0D0F90134A4B2E0
:1030A0002E46F0E705F05F0040F00200854204D0B4
:1030B000FFF732FA0A2001F0C1F970BD70B5FFF7D1
:1030C0003FFD00F07B0343F0020398421BD006460D
:1030D0000024B4F57A7F0BD2FFF732FD0546864215
:1030E00006D0022001F0AAF90134A4B22E46F0E77E
:1030F00005F07B0040F00200854204D0FFF70CFA97
:103100000A2001F09BF970BD38B50546002446F24F
:10311000A7139C4207D8FEF7DDFE78B9022001F024
:103120008DF90134F3E75DB1FFF70AFD83B21B02AD
:103130009BB243F020032B80002000E0012038BD2B
:103140000020FCE770B505460E4600244FF47A7364
:1031500003FB05F3B4EB530F0AD2B4F1FF3F07D0E2
:10316000FDF7A1FE78B9022001F068F90134EDE71E
:103170005EB1FFF7E5FC83B21B029BB243F0100384
:103180003380002000E0012070BD0020FCE738B54E
:103190000546002446F2A7139C4207D8FFF7F6FE27
:1031A00078B9022001F04AF90134F3E75DB1FFF785
:1031B000C7FC83B21B029BB243F011032B8000209B
:1031C00000E0012038BD0020FCE770B400230AE0D5
:1031D0000022C2540EE02A78AAB10C5D9CB1A24232
:1031E00011D10133DBB21C46C518C25C533AD2B2CE
:1031F000012AEDD90E190A5D533AD2B2012AEAD852
:1032000000220A55E7E733789A4206D808D001D35E
:10321000012003E04FF0FF3000E0012070BC704758
:103220000020FBE710B50C4601460A48FFF7CDFF2A
:10323000002801DB002010BD4CB1FFF781FC83B2F8
:103240001B029BB243F0770323800120F3E70120A8
:10325000F1E700BF1401002000BFFEE770B50025B4
:103260004FF4803404E0802001F010FC00B103E052
:10327000201EA4F10104F6D100BF0CB9032070BDDB
:1032800040F2FF5001F0D8FB2846F8E770B504463D
:1032900005E01648056805F0450000B100E0F8E7D4
:1032A00000BF042001F0F2FB20B1042001F0C4FBB8
:1032B000032070BD012001F0E9FB20B1012001F0E5
:1032C000BBFB0120F5E7094824380068A04201D083
:1032D0001020EEE740F2FF5001F0AEFB034820382B
:1032E000006808210840C0B2E3E70000342C014028
:1032F00070B500264FF4803505E01148046804F0ED
:10330000450000B103E0281EA5F10105F5D100BF7D
:1033100015B104F0040028B10326042001F08CFB51
:10332000304670BD012001F0B1FB18B1012601202B
:1033300001F082FB40F2FF5001F07EFB3046F0E7E7
:10334000342C014010B505E00B48046804F045003A
:1033500000B100E0F8E700BF042001F097FB20B1C6
:10336000042001F069FB032010BD40F2FF5001F082
:1033700063FB0020F8E70000342C01402DE9F04108
:1033800005460E464FF0000805E02048076807F0A4
:10339000450000B100E0F8E700BF042001F076FB33
:1033A00028B1042001F048FB0320BDE8F081012092
:1033B00001F06CFB20B1012001F03EFB0120F4E79D
:1033C000124824380068A84201D01020EDE740F2EE
:1033D000FF5001F031FB0D482038046804F46040D0
:1033E00018B9200C30804046DFE704F4005008B1E3
:1033F0001320DAE704F4804008B11020D5E704F484
:10340000004008B10F20D0E74046CEE7342C014001
:1034100070B500264FF4803505E00F48046804F0CD
:10342000450000B103E0281EA5F10105F5D100BF5C
:1034300015B104F0040028B10326042001F0FCFAC1
:10344000304670BD04F0400018B10026402001F065
:10345000F3FA3046F5E70000342C014010B5074977
:10346000074800F03FF9012806D10449044800F05C
:103470003BF804480068804710BD00000080001839
:10348000586002407400002010B50749074800F05A
:1034900029F9012806D10449044800F025F8012043
:1034A0000349087010BD00002080002070600240B9
:1034B0006C00002010B50949094800F013F90128F3
:1034C0000AD10021064800F029F80449044800F018
:1034D0000BF801200349087010BD0000008000288F
:1034E000B86402400E0100200246094B9A4201D204
:1034F000084801E00648103801F000531BB1064BA4
:103500000B40C36002E0044B0B4083607047000037
:1035100010640240006002407D0F7D0F21B10268FF
:1035200042F00102026003E0026822F00102026040
:1035300070470000016821F0010101600021016075
:1035400041608160C1600161212141614A49884235
:1035500004D13D21484A103A91608CE04649183127
:10356000884205D14FF47461434A103A916082E079
:1035700041493031884205D14FF474113E4A103A26
:10358000916078E03C494831884205D14FF0746140
:10359000394A103A91606EE037496031884204D16F
:1035A0003649354A103AD16065E03349783188426E
:1035B00004D13349304A103AD1605CE02E49903151
:1035C000884204D12F492C4A103AD16053E02A494D
:1035D000A831884205D14FF03D51274A103AD160B9
:1035E00049E02949884204D13D21274A083A11601F
:1035F00041E025491831884205D14FF47461224ACF
:10360000083A116037E020493031884205D14FF443
:1036100074111D4A083A11602DE01B494831884257
:1036200005D14FF07461184A083A116023E0164939
:103630006031884204D11149134A121F11601AE007
:1036400011497831884204D10D490F4A121F116087
:1036500011E00D499031884204D10A490A4A121FEB
:10366000116008E00849A831884204D14FF03D516B
:10367000054A121F11607047106002403D00002093
:10368000400F002000003D201064024021B102687C
:1036900042F48022026003E0026822F48022026089
:1036A000704722B1036843F40023036003E003681A
:1036B00023F4002303600161704721B1026842F0E6
:1036C0002002026003E0026822F0200202607047DC
:1036D000014600200A6802F001020AB1012000E060
:1036E0000020704770B50246002000240025124ECD
:1036F000B24201D2114B01E00F4B103B104E0E4075
:1037000036B11E2606EAD124166806EA040502E050
:10371000566906F0800501F000560EB15C6800E0C5
:103720001C68084E344004EA010616B10DB10120B0
:1037300000E0002070BD0000106402400060024004
:103740003C0F3C0F7D0F7D0F10B501F080034BB196
:1037500022B1436943F08003436103E0436923F0EE
:103760008003436180290BD02AB1036801F01E0455
:103770002343036004E0036801F01E04A3430360D5
:1037800010BD000010B500220268134B1A40CC682F
:103790000B6823434C6923438C692343CC6923433F
:1037A0000C6A23434C6A23438C6A23434C6B2343A8
:1037B0008C6B23431A430260426922F00702D1E96D
:1037C0000B3423431A4342610B6943604B688360A7
:1037D0008B68C36010BD00003F801CF07047000084
:1037E00010B50A2003F076FB01200549087005A0FA
:1037F000FCF76EFD4FF4806000F034F810BD00005F
:10380000EC000020CED2B0B4CFC2C1CBB0B4BCFC6F
:103810000D0A00000EB50121880301F023F80A21EA
:10382000012002F001FE4FF48060009000208DF82E
:1038300004000C208DF8050001208DF80600684674
:1038400000F016F828208DF8080000208DF80900F7
:1038500002208DF80A0001208DF80B0002A800F06C
:1038600089FF0EBD0149086070470000143C01400B
:10387000002123498279002A3AD00A461268036857
:103880009A430B461A600A1D126803689A430B1D7F
:103890001A60027911440A6803681A430A60184AD8
:1038A0000832126803689A43154B08331A601A1DD0
:1038B000126803689A43124B0C331A604279102A3B
:1038C0000ED11A1F126803681A430D4B08331A6091
:1038D0001A1D126803681A43094B0C331A600DE075
:1038E0000749427911440A6803681A430A6005E0EF
:1038F000027911440A6803689A430A60704700001D
:10390000003C01402DE9FC4107460D4600260024FD
:1039100000200090019008205B490860102048605A
:10392000402088600020C8604FF48060086108462D
:1039300001F0F8F81020FFF7A9FC044614B1204666
:10394000BDE8FC815148008800044F4908603720D9
:103950004860402088600020C8604FF480600861A3
:10396000084601F0DFF83720FFF790FC04460CB161
:103970002046E5E74FF0FF304549086008204860E1
:10398000302088600220C860002008610120486162
:10399000084601F061F800203B4908603320486088
:1039A000402088600020C8604FF4806008610846AD
:1039B00001F0B8F83320FFF769FC04460CB120464B
:1039C000BEE70CE04FF4001001F060F838B1314868
:1039D00000684DF82600761C022E00D307E02D4823
:1039E0004C38006840F22A6108400028EAD000BF45
:1039F000082001F04BF820B1082001F01DF8042048
:103A00009EE7022001F042F820B1022001F014F8F4
:103A1000022095E7202001F039F820B1202001F0A4
:103A20000BF806208CE74FF4007001F02FF828B156
:103A30004FF4007001F000F8072081E740F2FF50DA
:103A400000F0FAFF00980006009901F47F4140EA77
:103A50000120009901F47F0140EA1120009940EA19
:103A60001160686001980006019901F47F4140EA05
:103A70000120019901F47F0140EA1120019940EAF7
:103A80001160286020465BE738AB01206000002011
:103A90004CAB0120802C0140F0B50A4600210023E8
:103AA000002400BF3DE0012505FA01F3156805EA91
:103AB00003049C4234D105684F000326BE40B54341
:103AC000056015794E00B5400668354305601579E7
:103AD000012D02D01579022D16D185684F000326DD
:103AE000BE40B543856055794E00B5408668354384
:103AF0008560456801268E40B543456045689679E6
:103B00008E40B6B235434560C5684F000326BE40BF
:103B1000B543C560D5794E00B540C6683543C5602C
:103B2000491C1029BFD3F0BDF0B5002300244D0778
:103B3000ED0E02FA05F3CE1000F1200555F82650DF
:103B40004E07F70E0F26BE40B543CF1000F12006FA
:103B500046F82750CE1000F1200555F8265045EACA
:103B60000304CE1000F1200545F82640F0BD418346
:103B700070470183704700BFFEE700002DE9FF4159
:103B800004460F4615461E460121880300F04AFEF2
:103B90000121880300F056FE00214FF4804000F020
:103BA00051FEADF80070ADF80240ADF804604FF47E
:103BB0000070ADF8060043F655600290ADF80C5069
:103BC0006946074800F01AF901220221044802F070
:103BD00003FC0121024800F0DDF8BDE8FF81000090
:103BE0000038004070B590B004460E4615460121DD
:103BF000480500F007FE2448FFF79CFC00BF224860
:103C0000FFF766FD0028FAD120491F48FFF76CFC3A
:103C1000002000901E4801900294402003900495DB
:103C2000002005904FF480600690400007908000CF
:103C300008904011099040020A9000200B900C90CF
:103C40000D900E9069461048FFF79CFD002231460A
:103C50000D48FFF726FD01210B48FFF717FD012254
:103C600010210948FFF770FD0F208DF83C0000205F
:103C70008DF83D008DF83E0001208DF83F000FA823
:103C800000F078FD10B070BD706002403DF000A003
:103C90000C3800402DE9FF4104460F4615461E46EC
:103CA00087F48070ADF80000ADF80240ADF8046014
:103CB0004FF40070ADF8060043F655600290ADF881
:103CC0000C506946064800F071F80122114604487C
:103CD00002F082FB0121024800F05CF8BDE8FF81A0
:103CE0000034004070B590B004460E4615460121E0
:103CF000480500F087FD2448FFF71CFC00BF224860
:103D0000FFF7E6FC0028FAD120491F48FFF7ECFB3B
:103D10004FF0C06000901E48019002940020039074
:103D2000049505904FF48060069040000790800055
:103D300008904011099000020A9000200B900C900E
:103D40000D900E9069461048FFF71CFD0022314689
:103D50000D48FFF7A6FC01210B48FFF797FC012255
:103D600010210948FFF7F0FC0E208DF83C000020E0
:103D70008DF83D0001208DF83E008DF83F000FA822
:103D800000F0F8FC10B070BD5860024000F0409F99
:103D90000C34004021B1828B42F48062828304E0C3
:103DA000828B4FF6FF331A408283704730B5002272
:103DB0000023848B4FF240052C408483022404842A
:103DC000828B0C88B4F5007F01D00C8814B94FF4B5
:103DD000807308E00C88B4F5407F03D00C88B4F5FC
:103DE000807F00D100238C888D892C434D882C4303
:103DF0001C4344F400642243828330BD2DE9F04F1C
:103E00000025022300244FF001090022002600278C
:103E100094469046B0F81CA04FF2400B0AEA0B0AF9
:103E2000A0F81CA04FF0020AA0F820A0858BD1F8C2
:103E300008A0BAF1020F01D100BF82E0B1F804A0DE
:103E4000BAF1000F02D14FF0010901E04FF0020971
:103E5000DFF834A1DAF800A00AF4000ABAF1000F82
:103E600009D0DFF824A1DAF800A02AF4000ADFF86C
:103E700018B1CBF800A0DFF810A10AF17C0ADAF83B
:103E800000A0CAF3881CDFF800A10AF17C0ADAF866
:103E900000A0CAF30278DFF8F0A0AAF1040ADAF869
:103EA00000A00AF03F07DFF8E0A0AAF1040ADAF860
:103EB00000A00AF4800ABAF5800F08D1DFF8CCA080
:103EC000BAFBF7FA0AFB0CFABAFBF8F607E0DFF8E0
:103ED000C0A0BAFBF7FA0AFB0CFABAFBF8F6B1F885
:103EE00006A0BAF5007F0ED14FEA162A0AEB8A0A1D
:103EF0004FEA4A0AD1F808B0BAFBFBFA0AF1050A00
:103F00001FFA8AF20FE04FEA491AB6FBFAFA0AEBF7
:103F10008A0A4FEA4A0AD1F808B0BAFBFBFA0AF15A
:103F2000050A1FFA8AF24FF00A0AB2FBFAF202F00F
:103F30000104A2EB040ACAF34F034FF6FF7A0AEA20
:103F40000424022B01DBFF2B01DD02230024B1F846
:103F500006A04AEA040A4AEA030AA0F820A0B1F837
:103F600004A0B1F80CB04AEA0B0AB1F802B04AEA70
:103F70000B0AB1F800B04AEA0B0A4AF4006A4AEAAE
:103F800005058583BDE8F08F0838024000127A00ED
:103F90000024F40010B501210148FFF7BFFA10BD5D
:103FA0007060024010B501210148FFF7B7FA10BD5B
:103FB000586002401CB50121022000F023FC4FF4A0
:103FC0004070009001208DF8040000208DF806005C
:103FD00003208DF8050001208DF80700694605488B
:103FE000FFF75AFD0120044908600449C1F8A40202
:103FF0001CBD000000040240A082404200804042FC
:1040000070B504461548006820F440201349086044
:104010000846006840F480200860002010490860CD
:10402000002517E0E0090E49091D08606006040E2E
:10403000022002F05DFF01200A49C1F8A00202201F
:1040400002F056FF002006490860022002F050FFEF
:10405000681CC5B2082DE5DB70BD000000040240FD
:10406000A08240420080404210B50F48006820F412
:1040700040200D4908600846006840F48020086030
:1040800001200A4908600A49C1F8A002042002F090
:104090002FFF002005490860042002F029FF0020BE
:1040A0000349C1F8A00210BD00040240A4824042AE
:1040B0000080404210B50F48006820F440200D49B0
:1040C00008600846006840F48020086000200A4923
:1040D00008600A49C1F8A402042002F009FF012087
:1040E000054908600549C1F8A402042002F000FF58
:1040F00010BD000000040240A08240420080404207
:1041000010B500241348006820F4402011490860CD
:1041100008460068086001200F49086002F0E8FEC8
:1041200001200E49C1F8A00202F0E2FE07E0601C87
:10413000C4B2FA2C03DDFFF7BDFF012010BD064815
:10414000803800680028F2D10349091F086000BFC9
:10415000F4E7000000040240A48240420080404294
:104160001CB50446002001900090224800880004FD
:10417000214908600D204860402088600020C86008
:104180004FF480600861084600F0CCFC1B480068D2
:10419000009002E0194800680090009800F0450087
:1041A0000028F7D0012000F071FC20B1012000F0C0
:1041B00043FC01201CBD042000F068FC20B1042059
:1041C00000F03AFC0320F5E70C48243800680D287D
:1041D00001D01020EEE740F2FF5000F02DFC074820
:1041E0002038006801900198C0F34320207000201F
:1041F000E0E700006000002038AB0120342C0140D3
:104200001CB50121022000F0FDFAF02000900120F1
:104210008DF8040000208DF8060002208DF80500BE
:1042200001208DF8070069461E48FFF735FCF02194
:104230001C48FFF79EFC0121084600F0E3FA10201D
:10424000009001208DF804008DF8060002208DF802
:10425000050000208DF8070069461348FFF71CFC95
:1042600010211148FFF783FC0121022000F0CAFA57
:104270004FF40060009001208DF8040000208DF8BC
:10428000060003208DF8050002208DF8070069461E
:104290000448FFF701FC4FF400610248FFF767FC98
:1042A0001CBD000000040240000002401CB50121BA
:1042B000084600F0A7FA1020164908830090012054
:1042C0008DF8040000208DF8060003208DF805000D
:1042D00001208DF8070069460E48FFF7DDFB01213C
:1042E000022000F08FFA20200B4908800090012066
:1042F0008DF8040000208DF8060003208DF80500DD
:1043000001208DF80700694603481838FFF7C4FB01
:104310001CBD0000000002401804024010B5FFF769
:10432000C5FF00F001F810BD00B587B001210846B7
:1043300000F068FAE020059002208DF818000020B7
:104340008DF81A0003208DF8190001208DF81B004C
:1043500005A92248FFF7A0FB052207211F48FFF708
:10436000E3FB052206211D48FFF7DEFB052211466F
:104370001A48FFF7D9FB0121080300F073FA012165
:10438000080300F07FFA00214FF4805000F07AFA21
:104390000020ADF800004FF48270ADF8020000205C
:1043A000ADF80400ADF80600ADF808004FF4007059
:1043B000ADF80A001820ADF80C000020ADF80E0092
:1043C0000720ADF810006946054802F00EF80121FB
:1043D000034801F0F5FF07B000BD000000000240F7
:1043E0000030014010B50446074800884FF6C771F9
:1043F00008400549088008460088204308800121BC
:10440000014801F0DDFF10BD0030014018B110215E
:10441000034A118302E01021014A518370470000D2
:104420000000024018B12021034A118003E020213E
:10443000014A921C118070471804024010B50446CE
:10444000204602F055FD10BD10B50020FFF7DEFF3D
:10445000012000F0ABF80020FFF7E4FF052000F09A
:10446000A5F80120FFF7DEFF4FF4967000F09EF8EC
:104470000120FFF7CBFF40F2ED1000F097F810BDE0
:1044800010B594B03A4C01201390FF2012900020F8
:104490000E900F90109011900490FFF7D5FF082018
:1044A000FFF7A0FF334C012000F080F804AA21465A
:1044B0003148FCF7E9FA08B900BFFEE701A8FCF7AC
:1044C00001FD08B900BFFEE72C4803900398FCF7F4
:1044D00023FD02902AA00299FBF7FAFEDDE9020112
:1044E000884206D2DDE90210401A052801D900BF32
:1044F000FEE704AA00210120FDF75EFB10B90020B1
:1045000014B010BD04A913A8FCF70FFC08B90020D3
:10451000F6E79DF84C00012803D09DF84C000328D5
:1045200023D104A81423002217A1009019A0FCF79E
:104530002BFF20B91AA0FBF7CBFE0020E0E70A21F1
:104540000EA800F045F808B90020D9E704A912A880
:10455000FCF723FC08B90020D2E704AA05A906A8A5
:10456000FDF72EFA08B90020CAE70120C8E70000CD
:10457000005A6202406F400100300140A0860100F5
:104580006A3A25640D0A0000756671786878796466
:1045900000000000434D43432D6254666400000058
:1045A000C1ACBDD3B2BBC9CF0000000070B504469A
:1045B00000250AE0002604E0FA20FFF73FFF701C08
:1045C00086B2042EF8DB681C85B2A542F2DB70BD12
:1045D000F8B506460C4600200090002512E069461A
:1045E0003046FCF717FC012805D10BA13046FCF73B
:1045F000BDF800B108E04FF47A70FFF7D7FF00BFB5
:10460000681C85B2AC42EADC00BFAC4201DC002091
:10461000F8BD0120FCE70000302E302E302E300097
:1046200038B50020009000246A4604212046FCF79B
:104630000CFB40B906E004A0FBF74AFE4FF47A7089
:1046400002F048FCF7E738BD0D0AC5E4D6C3B5F75C
:10465000D5FBB4B0BFDAB2CECAFDCAA7B0DCA3A105
:104660000D0A00001FB500200390002403A81421A8
:1046700041F695730BA2CDE9004102900021012083
:10468000FDF7E8FA40B906E00AA0FBF721FE4FF477
:104690007A7002F01FFCF7E70CA0FBF719FE002070
:1046A00004B010BD34372E3130352E3137352E342D
:1046B000370000000D0AB4B4BDA8CCD7BDD3D7D6FF
:1046C000CAA7B0DCA3A10D0A000000000D0AB4B413
:1046D000BDA8CCD7BDD3D7D6B3C9B9A6A3A10D0A5F
:1046E0000000000070B586B005460C46002005901D
:1046F0000026049000BF05A800210091334641F236
:104700008832CDE9011021462846FDF7AFF9049023
:104710000498A04203D1BDF81400C0B220B3BDF884
:104720001400C0B21E2802D1012003901CE0BDF885
:104730001400C0B2142804D0BDF81400C0B215286B
:1047400002D1022003900FE0BDF81400C0B2182877
:1047500005D1032003906320FFF770FE04E00420DE
:1047600003906520FFF76AFE06B070BD00BFFEE74C
:104770007047000070B5002100230F22C4781CB3DD
:10478000174C246804F4E064C4F5E064C4F3072122
:10479000C1F10404E3B20A4144789C40E1B2847858
:1047A000144021430C07210E0E4C05786155047806
:1047B00004F01F050124AC4005786D11AD0005F132
:1047C000E025C5F8004109E0047804F01F05012444
:1047D000AC40054D0678761145F8264070BD0000C6
:1047E0000CED00E000E400E080E100E0024901435C
:1047F000024A1160704700000000FA050CED00E06D
:104800007047000029B1064A12680243044B1A603F
:1048100004E0034A12688243014B1A6070470000AB
:104820003038024029B1064A12680243044B1A602C
:1048300004E0034A12688243014B1A60704700008B
:104840004038024029B1064A12680243044B1A60FC
:1048500004E0034A12688243014B1A60704700006B
:104860002038024029B1064A12680243044B1A60FC
:1048700004E0034A12688243014B1A60704700004B
:104880004438024029B1064A12680243044B1A60B8
:1048900004E0034A12688243014B1A60704700002B
:1048A00024380240F0B50021002200240225002611
:1048B0000223324F3F6807F00C0121B1042905D0D3
:1048C000082937D105E02E4F076036E02D4F0760ED
:1048D00033E02A4F3F1F3F68C7F38056274F3F1FE3
:1048E0003F6807F03F036EB1264FB7FBF3F7DFF8E1
:1048F0008CC0ACF1040CDCF800C0CCF3881C07FBC6
:104900000CF40CE01E4FB7FBF3F7DFF870C0ACF10E
:10491000040CDCF800C0CCF3881C07FB0CF4174F28
:104920003F1F3F68C7F301477F1C7D00B4FBF5F7CD
:10493000076002E0124F076000BF00BF0F4F3F68E3
:1049400007F0F0010909104F7A5C0768D74047600B
:104950000A4F3F6807F4E051890A0B4F7A5C4768B9
:10496000D7408760054F3F6807F46041490B064F09
:104970007A5C4768D740C760F0BD00000838024045
:104980000024F40000127A00020000207CB50546E5
:10499000002400200090019000260DB1022600E0C6
:1049A00000262248006800F0007008B10E207CBD8F
:1049B0001F49098888B26946FEF7A4FF04460CB176
:1049C0002046F4E7019800F4802060B3184800887E
:1049D00000041849086037204860402088600020A3
:1049E000C8604FF480600861084600F09BF83720EB
:1049F000FEF74CFC04460CB12046D8E70D48066093
:104A000006200C494860402088600020C8604FF4B0
:104A100080600861084600F085F80620FEF736FC45
:104A200004462046C3E72520C1E70000142C0140BE
:104A30006000002038AB0120014908607047000089
:104A4000382C01400146034A106820F0FF0008435B
:104A500010607047042C014000210B4B02681A6063
:104A60001B1D42681A601A1D116821F0F701D0E978
:104A700002231A4303691A4343691A431143024A42
:104A80000832116070470000242C014001460020CC
:104A9000034A12680A400AB1012000E00020704772
:104AA000342C01400248006800F003007047000009
:104AB000002C014010B500F099FC10BD00210A4AFD
:104AC000116847F6FF629143027D83681A43436889
:104AD0001A43C3681A4303681A4303691A4311430C
:104AE000014A116070470000042C014000200B496E
:104AF0000860091D0860091D0860091D0860074954
:104B000024310860091D0860091D08600448034934
:104B1000383108600020091D08607047002C0140F2
:104B2000FF07C0000021094B02681A601A1D1168B6
:104B30006FF30A01D0E901231A43C3681A430369DA
:104B40001A431143014A121D11607047082C01409D
:104B50000149086070470000002C014070B590B01A
:104B600004460E46154600BF1A48FEF7B1FD002860
:104B7000FAD11848FEF7DEFC4FF0006001901648AD
:104B80000290039404950020059006904FF48060F5
:104B90000790800008908000099000200A904FF450
:104BA00040300B9004200C9003200D904FF4000037
:104BB0000E9080100F9001A90648FEF7E3FD20211A
:104BC0000448FEF77AFD01210248FEF7A7FC10B069
:104BD00070BD000058640240802C014070B504464E
:104BE000002516480078032802D12725284670BDE5
:104BF0001248007838B111480078012803D00F48D6
:104C00000078022817D1B4F5805F02D12725284605
:104C1000EDE7E0B2FFF7BAFE054665B9084800685F
:104C200020F4C05006490860084600682043086028
:104C30000846006808602846D9E700005C000020AC
:104C4000042C0140F0B5014600200022BE4B1B7829
:104C500081F85630BD4B1B88A1F85430BC4B1B6803
:104C60001A0E93090B70C2F383034B7002F0030317
:104C70008B70B74B1B68C3F30742CA70B44B1B88D9
:104C8000C3F307220A71B24B1A784A715B681A0E95
:104C90001301CB80AE4B5B68C3F30742CB8843EA7A
:104CA0001213CB8002F00F030B72A94B9B88C3F346
:104CB0000722D3094B72C2F380138B72C2F34013E5
:104CC000CB72C2F300130B7300234B739E4B1B7804
:104CD0003BB19D4B1B78012B03D09B4B1B78032BC7
:104CE0004FD193071B0D0B61994B1A790B6943EA5E
:104CF00082030B61964B9B681A0E0B6943EA921371
:104D00000B61C2F3C2030B7502F007034B75904BA6
:104D10009B68C3F3074253098B75C2F38203CB75BB
:104D200093075B0F0B768A4B1B89C3F307220B7E1D
:104D300043EAD2130B760B695B1C0024C1E91234E1
:104D40000B7E9B1C012404FA03F3DC17D1E91256F5
:104D5000A5FB037C06FB03C305FB0433C1E9127307
:104D60000C7A0123A3400B650024D1E912650B6D79
:104D7000A6FB037C05FB03C306FB0433C1E91273E6
:104D80002EE0714B1B78022B2AD1714B1A799306B6
:104D90009B0A0B616E4B9B681A0E0B6943EA022358
:104DA0000B616B4B9B68C3F307420B6913430B61A9
:104DB000674B1B89C3F307220B695B1C4FF400741C
:104DC000A3FB04464FF480630025A4FB037C06FB91
:104DD00003C304FB0533C1E912734FF400730B6581
:104DE000C2F3801301F8193F93065B0E4B70584BCA
:104DF0001A7A4B7843EAD2134B7002F07F038B7020
:104E0000534BDB681A0ED309CB70C2F341130B71FD
:104E1000C2F382034B7193071B0F8B714C4BDB6802
:104E2000C3F307428B7943EA92138B71C2F34013A9
:104E3000CB7100230B7202F001034B72444B9B8930
:104E4000C3F30722D3098B72C2F38013CB72C2F370
:104E500040130B73C2F300134B73C2F381038B73C4
:104E600002F00303CB733A4B1A7B53080B740123F4
:104E70004B74384B1B681A0ECA741939354B1B68B2
:104E8000C3F307421402CC85324B1B88C3F30722BD
:104E9000CB8D1343CB852F4B1A7814060C635B68BC
:104EA0001A0E0B6B43EA02440C632A4B5B68C3F394
:104EB00007420B6B43EA02240C63264B9B88C3F327
:104EC00007220B6B13430B63224B1A7934235A547A
:104ED000204B9B681A0E35235A541E4B9B68C3F314
:104EE000074214068C631B4B1B89C3F307228B6B91
:104EF00043EA02448C63174B1A7A8B6B43EA022411
:104F00008C63144BDB681A0E8B6B13438B63114B52
:104F1000DB68C3F307423C235B5C43EA12143C2387
:104F20005C5413071C0DCC870A4B9B89C3F30722E3
:104F3000CB8F1343CB87074B1A7B540840235C5419
:104F4000012441235C54F0BD5C000020600000207F
:104F500064AB012074AB012008B5002000906846C6
:104F600000F000FE08B1FF2008BD0098C0F3432008
:104F7000FAE700003EB50024002501214448FFF770
:104F800041FC0121C802FFF76DFC0121C802FFF7B7
:104F900079FC4FF4F850019002208DF808008DF84C
:104FA000090000208DF80A0001208DF80B0001A9EE
:104FB0003848FEF771FD0420019001A93648FEF73C
:104FC0006BFD0C2208213348FEF7AEFD0C220921AF
:104FD0003048FEF7A9FD0C220A212E48FEF7A4FD59
:104FE0000C220B212B48FEF79FFD0C22114629486D
:104FF000FEF79AFD0C2202212748FEF795FD0021BD
:105000004FF40060FFF73EFCFFF770FD31208DF894
:10501000000000208DF801008DF8020001208DF8BD
:1050200003006846FFF7A6FB00F0EEF8044614B94B
:1050300000F038F804461CB91848FFF703FE044690
:1050400034B91649B1F85410080400F073FD044651
:1050500024B94FF40060FFF7C1FD04461CB11048AD
:105060000078032812D10D4890F8560020B10B4863
:1050700090F85600012801D1022500E000252846BD
:10508000FFF7E0FC002000F097FD044620463EBDFF
:105090000C00400000080240000C024088AB0120D8
:1050A0005C00002038B5002401200090FFF7FAFCD6
:1050B00010B92524204638BD4D480078042824D056
:1050C00000204C49086002204860C0208860002011
:1050D000C8604FF4806008610846FFF723FDFEF7C3
:1050E00007F904460CB12046E5E743480068434908
:1050F00008604148001D006848603F48083000686B
:1051000088603D480C300068C8603948007858B164
:1051100037480078012807D035480078062803D0A2
:1051200033480078022816D1002032490860032055
:105130004860402088600020C8604FF480600861AB
:105140000846FFF7EFFC69460320FEF717F904460F
:105150000CB12046AFE726480078032816D1BDF8E9
:105160000000000423490860032048604020886054
:105170000020C8604FF4806008610846FFF7D2FC49
:10518000FEF7B6F804460CB1204694E718480078BC
:1051900004282AD0BDF8000019490860BDF80000B5
:1051A00000041449086009204860C020886000207D
:1051B000C8604FF4806008610846FFF7B3FCFEF753
:1051C00097F804460CB1204675E70B4800680D4976
:1051D00008600948001D00684860074808300068FA
:1051E000886005480C300068C860002063E7000054
:1051F0005C00002038AB0120142C014074AB01206E
:105200006000002064AB01202DE9F0470027002456
:1052100000260025A046A14676206E49087500208C
:10522000086048608860C86008610846FFF746FC6F
:105230000320FFF78DFC6848006840F480706649E1
:10524000086000BF12E00020644908604860886080
:10525000C8604FF4806008610846FFF763FCFDF703
:10526000FDFF044604B903E0781CC7B24A2FEADB0D
:1052700000BF14B12046BDE8F0874FF4D570574900
:10528000086008204860402088600020C8604FF413
:10529000806008610846FFF745FCFEF7B9F8044650
:1052A00024B901204E4908704FF0804900204B4935
:1052B000086037204860402088600020C8604FF4B4
:1052C000806008610846FFF72DFC3720FDF7DEFF00
:1052D0000446002C4CD135E00020404908603720BE
:1052E0004860402088600020C8604FF480600861FA
:1052F0000846FFF717FC3720FDF7C8FF04460CB13E
:105300002046B8E7374849EA0000344908602920B8
:105310004860402088600020C8604FF480600861C9
:105320000846FFF7FFFBFEF70DF804460CB12046D8
:10533000A1E7294810300668012080EAD67080F085
:1053400001086D1CB8F1000F03D14FF6FF708542C4
:10535000C2D34FF6FF70854202D31B2420468AE752
:1053600006F08040061E33D002201D4908702FE051
:105370001DE01D48194908600120486040208860F0
:105380000020C8604FF4806008610846FFF7CAFB40
:10539000FDF7D8FF04460CB120466CE70E481030EC
:1053A0000668012080EAD67080F001086D1CB8F113
:1053B000000F03D14FF6FF708542DAD34FF6FF702E
:1053C000854202D31B24204655E703200449087078
:1053D000204650E720AB0120042C014038AB0120CF
:1053E0005C000020000010800080FF8010B54FF4AA
:1053F0008070FFF74BFB78B34C480078012814D13C
:1054000000204B4908600C20486040208860002044
:10541000C8604FF4806008610846FFF783FB0C20EA
:10542000FDF734FF4349087002E00020414908704D
:105430004148006840F480703F490860081D0068DA
:105440004CF23A3188433C49091D086001203B4930
:1054500008703848007810BDFFE70220FFF716FB00
:1054600078B10220FFF7E8FA3348001D00684CF2DB
:105470003A3188433049091D086002202D490870DF
:10548000E9E70820FFF702FB78B10820FFF7D4FA1C
:105490002948001D00684CF23A3188432649091D0D
:1054A0000860042023490870D5E72020FFF7EEFAB2
:1054B00078B12020FFF7C0FA1F48001D00684CF2A9
:1054C0003A3188431C49091D0860062019490870B3
:1054D000C1E71020FFF7DAFA78B11020FFF7ACFA35
:1054E0001548001D00684CF23A3188431249091DE5
:1054F000086005200F490870ADE74FF40070FFF712
:10550000C5FA80B14FF40070FFF796FA0A48001D03
:1055100000684CF23A3188430749091D08600720AA
:105520000449087097E7002095E700006500002017
:1055300038AB012066000020382C014067000020B5
:105540002DE9F84F8146174698460A9C4FF0000A0D
:10555000D3464D464FF0FF36B9F1000F02D1262059
:10556000BDE8F88F00208649086086480078022848
:1055700005D10402780A40EAC8574FEA682800209B
:10558000814988604860401E086001204861002011
:10559000C86008610846FFF75FFA79481838006864
:1055A00000F0007008B10E20DAE7002C21DDB4F520
:1055B000006F1EDC601E2040D8B9204601F081FC3F
:1055C0000090724804601020704948604020886054
:1055D0000020C8604FF4806008610846FFF7A2FA17
:1055E0001020FDF753FE8246BAF1000F03D050465B
:1055F000B6E72620B4E700980001634988600846B2
:1056000044604FF0FF300860012048610220C8600C
:10561000002008610846FFF71FFA5C480760112068
:105620005A494860402088600020C8604FF480607C
:1056300008610846FFF776FA1120FDF727FE82463B
:10564000BAF1000F01D050468AE75148007800288F
:105650005CD1FAF714FE18E04FF40040FFF716FA99
:1056600078B14FF0000B06E045485430006845F82B
:105670002B000BF1010BBBF1080FF5D32035454E84
:1056800003E00EB904206BE7761E3D480830006841
:1056900040F22A6108400028DED00820FFF7F6F922
:1056A00020B10820FFF7C8F9042059E70220FFF7CE
:1056B000EDF920B10220FFF7BFF9022050E72020CA
:1056C000FFF7E4F920B12020FFF7B6F9062047E7FD
:1056D0004FF40070FFF7DAF928B14FF40070FFF7CC
:1056E000ABF907203CE704E0254854300068286007
:1056F0002D1D4FF40010FFF7C9F90028F4D1FAF777
:10570000C0FD40F2FF50FFF797F936E020480078DF
:10571000012832D100202049087020490870204912
:10572000087017481030006840F22A3108431449C5
:10573000103108601248006840F008001049086005
:10574000002221464846FFF709FA00E0761E154878
:10575000006800F0006038B91148007820B90E48A0
:10576000007808B9002EF1D10EB90420F8E60A48F5
:10577000007810B1084890F800A05046F0E600000C
:105780002C2C01405C0000204CAB012038AB0120E8
:1057900064000020FFFF7F006600002065000020FD
:1057A00067000020006402402DE9FE4F83460C464E
:1057B000914600200290002625462C46700240EAC1
:1057C000D5566D020BF00300F0B14FF0000A18E05F
:1057D0004FF4007000904FEA4A20471946EBE073FF
:1057E0003A461648FFF7ACFE02904FF40072134998
:1057F0005846FAF722FF0BF5007B0AF1010000F092
:10580000FF0ACA45E4DB16E0B9F1010F09D14FF4F4
:1058100000702A46334600905846FFF791FE0290EA
:1058200009E04FF400702A463346CDE90009584696
:1058300000F006F802900298BDE8FE8FE0AB012070
:105840002DE9FF5F17469846DDE90E464FF0000947
:10585000CA464FF0FF35AC49009808600020AB49BC
:105860000860AB480078022805D10402780A40EAB3
:10587000C8574FEA68280020A64988604860401E43
:105880000860012048610020C86008610846FFF7F1
:10589000E3F89E481838006800F0007018B10E2038
:1058A00004B0BDE8F09F002C21DDB4F5006F1EDCD4
:1058B000601E2040D8B9204601F003FB834696487D
:1058C0000460102094494860402088600020C8602F
:1058D0004FF4806008610846FFF724F91020FDF7B7
:1058E000D5FC8146B9F1000F03D04846D8E7262001
:1058F000D6E7012E71D906FB04F0B0F1007F01D389
:105900002620CDE74FEA0B108249886006FB04F0A1
:1059100048604FF0FF300860012048610220C860F5
:10592000002008610846FFF797F87B4807601220BF
:1059300079494860402088600020C8604FF480604A
:1059400008610846FFF7EEF81220FDF79FFC81463C
:10595000B9F1000F01D04846A2E77048007800284E
:105960007ED1FAF78CFC1EE04FF40040FFF78EF872
:10597000A8B14FF0000A08E064485430006862495A
:10598000096841F82A000AF1010ABAF1080FF3D3B5
:105990005D48006820305C490860614D03E00DB946
:1059A00004207DE76D1E59480830006840F22A3116
:1059B00008400028D8D00820FFF768F820B1082058
:1059C000FFF73AF804206BE70220FFF75FF828B1F1
:1059D0000220FFF731F8022062E792E02020FFF773
:1059E00055F820B12020FFF727F8062058E74FF49C
:1059F0000070FFF74BF828B14FF40070FFF71CF868
:105A000007204DE70AE04148543000683E490968E4
:105A100008603D480068001D3B4908604FF40010D5
:105A2000FFF734F80028EED14FF48070FFF72EF81E
:105A300020B33748007838B135480078012803D0C2
:105A400033480078022819D10020334908600C201F
:105A50004860402088600020C8604FF4806000E00B
:105A600013E008610846FFF75DF80C20FDF70EFC17
:105A70008146B9F1000F01D0484611E7FAF701FC61
:105A800040F2FF50FEF7D8FF3BE0244800780128A1
:105A900037D10020234908700120234908700020D5
:105AA0002249087019481030006840F22A31084332
:105AB0001649103108601548006840F00800134985
:105AC000086006FB04F100220098FFF747F800E0A9
:105AD0006D1E1748006800F0006008B9002DF7D16E
